:020000021000EC
:100000006FB0324D000000000018011800280128D0
:100010000228032800290129022903290429052986
:10002000062907290829002A012A022A032A042A64
:10003000052AA62A04C50300921E01006A020020B8
:10004000B40200202602002014020020DC0100205F
:100050001C21010048210100302201002E24010052
:10006000D2240100081D01002C1C01009E1C01006F
:10007000581C0100A629010000040020F220010004
:1000800084260100DC640300D46603004C6703008F
:10009000EA1C0300FE1C0300946902008A5A020055
:1000A000B45E0300BA260100A226030006E10100A7
:1000B00094E10100ECE10100FC3101004832010053
:1000C000B2300100EE9C0100A89701008CA601004F
:1000D0005CAA010008AE0100CA890100688901001C
:1000E000528D0100168A01003E890100C28901007B
:1000F000F08801009A8A0100F28A0100A28A0100B8
:10010000A68A0100408B0100FA8A01002C8B0100B5
:100110004E90010056900100968A01009E8A0100CF
:100120003E8B010052900100EE8B0100C491010052
:1001300066BC0100E4BC010022BD0100529F010029
:100140006A9F0100A69F0100688301004C840100A2
:10015000B4840100FE500100A04B01007078010042
:100160001E4C01009C730100B2A10300E49903003E
:10017000EE9E03000AB70300D0B5030054BA030093
:100180000CBA03004CBA0300FCBA030074880300E5
:100190008CBA030010AD030036AD03005EAD030062
:1001A0006CBB0300CAB3030060B30300DCBB0300F5
:1001B000D68A0300728B03009A8B03003C8B0300EA
:1001C0008A410300C82B0300D02F0300262D030013
:1001D000B4360300545F03003A5E0300A8880300AE
:1001E000002B0100261E0300822603007A2703004D
:1001F000CE550300805603004458030056A3010067
:10020000D2400300343703006A3D0300D2390300B3
:100210007C2B030026060020EC1E030078BA0300A6
:1002200010BA030048BA030044BA0300DA230100FD
:10023000A4A0010080BA030084430300D644030055
:10024000504503004C9F03007CBA030084BA0300AE
:10025000165A020088BA0300A40F0020921400204E
:100260002C9F0300CCA00300000000000000000051
:10027000000000000000000000000000000000007E
:100280006373B60082801C419105110523AEF5FE13
:10029000C5BFB7270020372700209387879B130708
:1002A000C7F36373F700828023A007009107D5BFCF
:1002B0005DCDAA870145D5CD8D07C207C183F19BCE
:1002C000C207C18313074003636CF702372700207E
:1002D0000325C7B237270020832647B26397A602BB
:1002E000372700200327C7BB014541C74111C2077B
:1002F00006C60545DD8D0297B24001454101828069
:1003000037270020032587B2F1B70357650031EF87
:1003100003574500636BF704B72600203306F74008
:100320002148938646B36378C8028328050003D822
:100330006600138687001D8F2A9661172312E60038
:10034000232016012313060010C12312F500130702
:1003500088FF2393E6002313B50083D566002105AB
:10036000B387F5402393F6008280084185BF01459D
:100370008280828009CDB727002003A3C7B2B727A8
:10038000002083A847B281469A8763E317018280E1
:1003900003A807006369F50A6367A80A1387870043
:1003A000E367E5FE03D66700216705076319E600EA
:1003B000372600200347C6A405072306E6A43726F0
:1003C0000020130546B383D54700035765002393E8
:1003D0000700130646B32E97420741832313E50017
:1003E0006387670237250020032585B26301F50284
:1003F00003D5660009ED83D7460023A00601210737
:10040000BE95A1052392B6002313E600B687984354
:10041000E30F17F7B726002083A686B2E309D7F6C5
:1004200083566700ADF683D64700835547001843CF
:10043000A106AE962392D70098C383576600A10702
:100440002313F6008280BE86C28781B719CD91CD75
:1004500009CE81473387F500834607003307F5004F
:1004600085072300D700E317F6FE828019C991C9DA
:1004700009CA910583A7C5FF11057D16232EF5FE38
:10048000C5BF828001C919C62A960505A30FB5FE0E
:10049000E31DA6FE828081473307F50003070700AE
:1004A00019E33E8582808507C5BF01112E8626CAC5
:1004B000AA84131506019305F004418122CC06CECF
:1004C00032C6FD332A8401C53246A68541372285CE
:1004D000F2406244D24405618280854715C18DC1D6
:1004E00005C28147B306F5003387F50083C60600D1
:1004F000034707006398E6008507E315F6FE854786
:100500003E8582808147EDBF9307F6FFBE952A9610
:100510006313C5008280FD1583C715000505A30F71
:10052000F5FEFDB7AA87014581CF09CE3E96850726
:1005300003C7F7FF6317B700E39BC7FE054582803B
:10054000828001458280797126D2B724002022D48E
:1005500003A484B806D64AD04ECE52CC56CA5AC846
:100560005EC662C44DC43729002037CAC901B72905
:100570000020814B372B00201309C9B8130AFA3722
:10058000938949B3B70AC0A88357240099EF5C4404
:10059000639A0B0023A4F4B8032CC4002285D93B32
:1005A000628499A823A6FB00C5BF83270BBD829751
:1005B000830669011C4463D806063307F54063626D
:1005C000EA0823A809008355240003450400972066
:1005D00001E0E780E0DB5C405844A1CF1444B697CB
:1005E0008306690163C7060063E55701B7064057F4
:1005F000B6971CC4A28B3A8441F8B7270020938792
:1006000047B3984B894663F2E606791798CBB25008
:10061000225492540259F249624AD24A424BB24B96
:10062000224C45618280E37AF5F83387FA402A97B5
:1006300079B763950B0023A4E4B8B9BF23A6EB00F8
:10064000A1BF0327490219CB63DD06003385A7400C
:1006500083A709016374F50023A8A900A28B404475
:1006600061BFE3F5A7FED697D5B723A8070045B726
:1006700001114AC837290020832749B606CE22CC6B
:1006800026CA4EC652C456C25AC081C78297232278
:1006900009B6930749B6DC4337240020130444B657
:1006A00091C38297832749B663900718B724002027
:1006B000938744E783C75700938444E7858B8DC3B2
:1006C00003C77400A3820400954763FBE700EF00B3
:1006D000F04883C77400F5178A07A2979C43829756
:1006E000372A002093074AEB83C7C700130A4AEB57
:1006F000918B99C3EF1000351C4491C38297372426
:100700000020B7290020930744B303A749B803C6C4
:100710001700930A44B3834744B393961700BA96DD
:1007200083D60600C1CA834744B363EDC708832755
:1007300049B6230A04B2EDEB83C7940091CB83C77B
:10074000740099E7A3840400972003E0E78060E940
:10075000B727002083A707BDE1CBB707C0A823A810
:10076000FA00D533B72700209387C7B8D8534DCFA9
:1007700083C7570103A70A016368F70A03C7740018
:10078000954763E3E70A8347CA00918BD1EF83C69D
:100790001A0003A649B863C3D70A6244F240D244A0
:1007A0004249B249224A924A024B0561172301E0AD
:1007B0006700439A850793F7F70F230AF4B2E3EC37
:1007C000C7F495B786073E978355070023100700A7
:1007D000034544B3B727002083A707B613172500A6
:1007E000372B0020BA979C4323100BB8829783576E
:1007F0000BB8034744B393C7F7FF7D8D93171700DA
:1008000003A749B83E97835707005D8D2310A700C3
:10081000834744B381C78507230AF4B2034744B32F
:1008200083C71A00E375F7F0F2406244D2444249AC
:10083000B249224A924A024B0561828013971700FF
:100840003297035707006DF38507B1B7AD6737C718
:100850000040BD072326F7200F100000B727002017
:10086000938747B3C84F83278726BD66BD0693C7C6
:10087000F7FF99836A052326D7205D8D8280411179
:10088000B7170040985F3AC6945F3247E39CE6FE94
:10089000324541018280828003278511630007125F
:1008A000411122C406C68347C5008345E5042A8456
:1008B00093F7C70F2306F500834697000356C7003A
:1008C00013958601618563F1C508635A05060345E2
:1008D000870093F6F607A304D700054693E62700A2
:1008E0006314C50093E617002306D4005C43890710
:1008F0005CC3A30AB400032504112E864C430905EA
:10090000B1368327841103465401D44303D7C7006B
:10091000B296118FD4C32396E7008947A30DF40044
:10092000B72700200347640383C7E7B96378F70458
:100930008347C40093E707012306F40081A093E7EF
:1009400017002306F40075B79376F60F635D050272
:1009500003458700854513E627006314B50013E6B9
:1009600017002306C400A30AD400A3040700854788
:10097000A30DF400832784119C43DDF3B24022448D
:1009800001454101828093E717002306F400A30A82
:10099000D400A3040700032504114C4309057D344A
:1009A0008327841103465401D44303D7C700B2966A
:1009B000118FD4C32396E7008D475DBF0545828024
:1009C000B727002083A7C7E5411122C406C6858B3F
:1009D0002A84DDEB4165130525F5977002E0E78079
:1009E000005A5DC18347A5002315F5008327041233
:1009F000B5E72320A4122322A41285472311F4046F
:100A0000232005008347640154412316F500034762
:100A1000D4002304E5000547A304E50037270020A0
:100A20000327C7E81385170215811C437D1513752D
:100A3000F50F9CC25C43DCC21C479CC65C47DCC60D
:100A40001C4B9CCA5C4BDCCA1C4F9CCE5C4FDCCE62
:100A500019CD9386060213070702C1BF83274412EC
:100A600088C3835724042322A412850741BFB727D4
:100A70000020938707D403D7870005072394E70056
:100A8000B2402244410182808347C400230904000C
:100A9000054593C747002306F400DDB7834785016A
:100AA00093F7E70FDDEB83479501C5EB034625017F
:100AB0008346C50009CA37270020834565030347DD
:100AC000F7B963E7E50013F7060149CB014709C60B
:100AD000C18A0357651C81C68356A51C36973DCF36
:100AE000B727002003D5C7B51307C71237460F0035
:100AF000B335A702411113060624814622C426C23B
:100B000006C67D543305A70297B003E0E780604D29
:100B1000B727002083C757BAB384A700B7270020A0
:100B200003A707DD8327070963F387003E84184383
:100B300075FBB727002083A707BD829781476364B1
:100B4000A400B307A440B2402244B3B7970093C7B0
:100B5000170092443E854101828081473E85828014
:100B6000797126D206D622D44AD04ECE52CC56CA5D
:100B70005AC85EC68347550303447513AA843E943E
:100B80001374F40F9307400263F687001304B4FD57
:100B90001374F40F03AA841383AAC413A38B8412BF
:100BA00022865285D68597B003E0E780003E05890E
:100BB00015E503CBD41201498149337B6403930BC0
:100BC00050024A865285D68597B003E0E780E03B25
:100BD000058915C5639169031374F90F238B84127A
:100BE000B250225492540259F249624AD24A424BBC
:100BF000B24B456182808509E20993D98941050993
:100C0000E31179FDE1BF8327850903560504797156
:100C100093D60701BD8EC206C182358E135776402A
:100C200093575640898B058B5D8F93573640918B38
:100C30005D8F93571640A18B5D8F93171600C18B64
:100C40005D8F9317360093F707025D8F9317560059
:100C50009355860093F707041E065D8F1376F60FF3
:100C6000518F93D7554013D63540118A898BD18F38
:100C700013D67540D18F13D61540218AD18F139684
:100C80001500418AD18F1396350013760602D18F55
:100C900013965500137606049E05D18F93F5F50F34
:100CA000CD8FA20745465D8F3307C70222D42A8421
:100CB00026D252CC56CA032A8413832AC4135AC894
:100CC00006D63697420741839357774013555740CE
:100CD0000989858BC98F135537401189C98F1355E1
:100CE00017402189C98F131517004189C98F131522
:100CF000370013750502C98F1315570093558700E8
:100D0000137505041E07C98F1377F70FD98F13D5F5
:100D1000354013D755401189098B498F13D575403C
:100D2000498F13D515402189498F139515004189A5
:100D3000498F1395350013750502498F139555009A
:100D4000137505049E05498F93F5F50F4D8F220706
:100D5000D98FB387C7024AD04ECE5EC662C4B6975B
:100D6000C207C18313D7774013D557400989058B34
:100D7000498F13D537401189498F13D517402189E1
:100D8000498F139517004189498F139537001375C3
:100D90000502498F1395570093D5870013750504F5
:100DA0009E07498F93F7F70FD98F13D5354013D787
:100DB00055401189098B498F13D57540498F13D53B
:100DC00015402189498F139515004189498F139545
:100DD000350013750502498F1395550013750504E9
:100DE0009E05498F93F5F50F4D8F2207D98FB38755
:100DF000C702130650025285D685B697BD8E9394CE
:100E00000601C18033F6C402137BF60F97B003E0EE
:100E1000E780A01705890DED8347D4120149814968
:100E2000B3849702130C5002C1804A865285D6853E
:100E300097B003E0E78060150589937BF90F11C532
:100E400063863403850993F9F90F0509E31F89FDCA
:100E5000230B6413B250225492540259F249624A4D
:100E6000D24A424BB24B224C456182805E8BCDB759
:100E70000111B727002022CC03A4C7DF26CA4AC825
:100E80004EC606CEAA8413092500854915C083C71E
:100E9000140003473400858B6304F700405CFDB702
:100EA0001946930544004A85EFF02FE3E31835FF18
:100EB0002285F2406244D2444249B24905618280AF
:100EC0004111B727002022C403A4C7DF26C24AC0AD
:100ED00006C693042500054901E82285B240224454
:100EE0009244024941018280A6851305A40297D04D
:100EF00002E0E78040BEE30225FF405CF1BF411104
:100F0000B727002022C403A4C7DF26C24AC006C6F2
:100F100093042500054901E82285B2402244924409
:100F2000024941018280A6851305A40197D002E001
:100F3000E78060BAE30225FF405CF1BF011122CCDB
:100F4000604126CA4AC84EC652C406CEAA841D4A6B
:100F5000130965058549BC446364F400054581A80F
:100F600003C7D40083474400631B470503C78402BB
:100F70006304F7000040C5B70347540083C7540516
:100F8000E31AF7FE1946CA8513056400EFF0EFD4A3
:100F9000E31235FF0347C40083C79402E31CF7FC48
:100FA0000357E40083D7A402E316F7FC0145F2409F
:100FB0006244D2444249B249224A05618280E31B1D
:100FC000F7FA0347540083C75405E315F7FA1946A7
:100FD000CA8513056400EFF04FD0E31D35F9F9B76A
:100FE0000111B727002022CC03A447DF26CA06CE72
:100FF0002AC42EC6854419E40145F2406244D24415
:10100000056182808347910003471400858B630448
:10101000F7000044CDB719469305A100130524003D
:10102000EFF0AFCBE31795FE0545C1BF011122CC10
:1010300037240020032704E92AC62EC432C206CE74
:101040003C4B93F7F7F73CCB971003E0E780A056B3
:10105000032704E9B72600203C4B93E707083CCB65
:1010600083A746E63245A24523A0070003471500A3
:10107000034825002207420842970348050042978B
:10108000034835006208429798D703475500034844
:1010900065002207420842970348450042970348EB
:1010A000750062084297D8D7034795000348A5000A
:1010B0002207420842970348850042970348B5003B
:1010C0006208429798DB0347D5000348E5002207F2
:1010D000420842970348C5000345F5004297620560
:1010E0002A97D8DB03C7150003C525002207420550
:1010F0002A9703C505002A9703C5350062052A977C
:1011000098CF03C7550003C56500220742052A97FB
:1011100003C545002A9703C5750062052A97D8CFF5
:1011200003C7950003C5A500220742052A9703C5FA
:1011300085002A9703C5B50062052A9798D303C78F
:10114000D50003C5E500220742052A9703C5C5005F
:1011500083C5F5002A97E2052E97D8D3D843759B0F
:10116000D8C3D84313671700D8C398431367170031
:1011700098C3124603A746E65C43858BD1EB1C4F10
:1011800001452300F60083A746E69C4FA183A300F8
:10119000F60083A746E69C4FC1832301F60083A790
:1011A00046E69C4FE183A301F60083A746E6D84FAD
:1011B0002302E600D84F2183A302E600D84F4183E3
:1011C0002303E600D84F6183A303E600985323046A
:1011D000E60098532183A304E60098534183230536
:1011E000E60098536183A305E600D8532306E60082
:1011F000D8532183A306E600D85341832307E60092
:10120000DC53E183A307F600F2406244056182806B
:1012100001008DB7B726002003A786E601114AC852
:101220001C5F4EC606CE998322CC26CA858BB68912
:1012300037290020ADCF1C5F37240020930444E7FA
:1012400093F7F7F91CDF930744E783C76700130799
:1012500000086319F700832749E69C4393F70704C6
:101260002383F400834744E793F7070489CFB72724
:10127000002083A707BD829788C8834744E793F778
:10128000F70B230AF4E683C7440093F7070485E3CA
:101290008547A382F400B727002083A707E90967E1
:1012A00098C7130700FC2382E400D844F8D383A72F
:1012B00089E6985F1183058B19CB985F85463D9B26
:1012C00098DF37270020130747E72302D700985FEE
:1012D0001D83058B01CF985F1377F7F798DFB7274A
:1012E0000020938747E705472382E700832749E6E5
:1012F000D8430583058B19C7D843759BD8C3D843FA
:10130000799BD8C3F2406244D2444249B249056154
:101310008280397106DE16DC1ADA1ED82AD62ED45F
:1013200032D236D03ACE3ECC42CA46C872C676C415
:101330007AC27EC0C535F250E2525253C253325582
:10134000A255125682567247E2475248C248324E60
:10135000A24E124F824F216173002030B727002028
:10136000B726002003A607E9938746E703C746E7A9
:10137000058B11C723820700A3820700828003C761
:101380001700058B65FB785275F303C75700EDB75F
:1013900037280020032788E61C5F9583858BD1E7DB
:1013A00009C61C5BBD832300F60085CA832788E637
:1013B000985B4607935767016356070093E707C09A
:1013C000C207C18303970600C207C18709C7BA973E
:1013D0000947B3C7E7022390F60037270020130719
:1013E00047E795C9834715009DC703466700938665
:1013F00097008947137606041DC636958346050077
:101400000546994793F5F606639FC500E206E18617
:10141000B94763CA0600832788E69C5FED838D8BFE
:10142000A305F70081473E8582808547EDBF4111C6
:1014300022C406C63724002026C2032704E92DE96A
:10144000AE877453FDFEB7240020938444E73E85A5
:10145000B28523810400971003E0E780A0ECB72752
:10146000002083A787E6B70680009843558F98C36E
:10147000D857719BD8D7832704E9A3820400A3809F
:101480000400094798C3832604E9B72700209387FF
:1014900047E703C72700058B19E703C73700058B0C
:1014A00059C723820700B2402244924441018280FE
:1014B0008D47631FF500B727002083A787E6B7068F
:1014C00080009843558F98C3D857719BD8D765BF74
:1014D0008547E31AF5FAB567BD075CC70F10000032
:1014E000832704E90967930600F898C73727002087
:1014F000130747E72302D70037270020832687E614
:101500000946984231830D8B6319C7001307E043E6
:10151000F8D33D673D07D8C7BDB7984231830D8BDF
:1015200001E713076019EDB71307E01BD5B7F852B1
:101530002DF395BF5D7152DC372A002003278AE620
:1015400086C6A2C4A6C2CAC04EDE1C43B72900206C
:101550003729002093F7F7E793E707081CC383A612
:10156000C9ED3707CEFF7D179C46130680022A84FB
:10157000F98F9CC6832709E9130700082800B8CB18
:10158000AE8493051008EFE0FFEF971003E0E780CB
:101590008002971003E0E780600E83278AE6937647
:1015A000F41F370FFCFF23A40700984B4E88CA880E
:1015B0001367F70398CBF84F130510F8D28513770C
:1015C00007E0558FF8CF9843F576FD16758F98C3D1
:1015D0009843B7063300B70204001377F7E798C3C0
:1015E00098439303401F7D1F1377F7E71367071096
:1015F00098C303A7C9ED930F800285491C47D58F77
:101600001CC7832709E91307900D3400B8CB114993
:10161000014713533700269383470300137677005F
:10162000B3D7C740858BE1C383A785E6832EC8ED7A
:10163000239C07042390070603AECE02137EDEFF31
:1016400023A6CE0383AE0700137EF70793FE0EF8A2
:1016500033EECE0123A0C70103AE4702336E5E0016
:1016600023A2C70383AE08E9014E23A27E0603DA54
:10167000070663074E0303AE0703038A0600135EE3
:10168000FE00620E135E8E416358CA0103AE07036B
:10169000135EFE002380C60103DE0706137EFE0FE5
:1016A00003AA4E0663060A0003DA8705E37F49FBB7
:1016B00003AE4702337EEE0123A2C70383870600F1
:1016C000635CF400034E03003396C9001346F6FF33
:1016D0003376C6012300C3003E8663D3A7002A8663
:1016E00013158601618505071377F70F8506E31249
:1016F000F7F3B640264496440649F259625A6161AE
:10170000828037260020832706E9D84793161701E1
:1017100063D2060298479316170163DD06007D57D2
:10172000B8D737270020130747B3544F850654CF47
:10173000116798C798470D83058B0DC33727002085
:10174000130747E78346270093E616002301D700D7
:10175000930600F82302D700214798C79847058BC6
:1017600009CF37270020130747E78346170093E682
:101770001600A300D700054798C798470983058B33
:1017800009E798470583058B21CF94473727002029
:10179000372500208982858A63800610832685E6A6
:1017A0009442B1828D8AF5E6AC4B930647E7944E9E
:1017B00093F5050283C61600DDC5E9EA93067006B7
:1017C000D4CF834647E793E61600230AD7E61147AE
:1017D00098C7032785E65C57F19B93E717005CD712
:1017E000032706E91C479396370163D40602B727FF
:1017F0000020938607D403C64607938707D4418AFF
:1018000055C683C7460793E70702238AF60685670E
:101810001CC71C479396270163D10602B7270020F7
:10182000938747E783C64700E206E18663D5060053
:1018300085462382D70089671CC71C4793960701FA
:1018400063D20602B7270020938707D483C65707C1
:10185000858AADCE83C6570793E62600A38AD706AE
:10186000A1671CC78280B9DA85456395B6009306E7
:10187000B006B9B789456395B6009306F00689B7F7
:101880008D456395B600930630071DBF930650073C
:1018900005BF930660072DB7130747E78346370058
:1018A00093E61600A301D70009471DB783C6470773
:1018B0000946BD8A6388C60083C647070D46BD8AB0
:1018C000E397C6F49146238AD70691B783C6570794
:1018D000918AD9D683C6570793E6860041B73971F6
:1018E00006DE16DC1ADA1ED82AD62ED432D236D02C
:1018F0003ACE3ECC42CA46C872C676C47AC27EC0D0
:101900000935F250E2525253C2533255A255125683
:1019100082567247E2475248C248324EA24E124F98
:10192000824F21617300203037270020B726002026
:10193000138646E9130747EB8347D7008345B60173
:10194000484AAE97FD8BB355F500A300F600A306F9
:10195000F700858995E903471701814613080002BE
:10196000B3F7E7020147B355E50085899378F70F90
:1019700089C96395D700A30016018280850693F676
:10198000F60F0507E31107FF8280B727002083A722
:1019900007BD011122CC26CA52C406CE4AC84EC683
:1019A00056C25AC08297B7240020938744EB8047E1
:1019B000014A6306A406B72700201387C7B80307A8
:1019C0006701938444EB1389C7B863550706018DFB
:1019D00037270020930747E983C7A7011354550011
:1019E000137AF501930947E96368F402B70AC0A8BE
:1019F000370B4057153F83C6A9019C4413975600E7
:101A00003E9783076901158C63C50700636357011F
:101A10005A9798C4E370D4FE1604336A4401F24026
:101A200062445285D2444249B249224A924A024B08
:101A300005618280E37D85F8B707C0A833848740BD
:101A4000229579B7B727002083A707BD411122C48B
:101A50004AC006C626C2829737290020930749EB61
:101A600080476308A406B7270020838727BA130995
:101A700049EB63D80704018DB7240020938744E91C
:101A800083C7A70113545500938444E96363F404A6
:101A9000613D83C7A40103278900939657003697B9
:101AA0001D8C2324E900E375F4FE224403C51400D1
:101AB000B2409244024981454101171303E0670097
:101AC000030EE37A85FAB707C0A8338487402295CE
:101AD00065B7B24022449244024941018280B7274F
:101AE000002003A7C7EDB75702009387079F8326FF
:101AF00007091396560063580600832607091396B4
:0C1B0000660063440600FD17FDF38280C0
:101B0C00B72700203727002083A7C7B2032747B287
:101B1C0001456313F700828083D6670081E683D684
:101B2C00470036959C43F5B7B727002083A5C7B867
:101B3C00372700209387C7B8138605222326C7B200
:101B4C0003D74700938785FFB72600204111BA972A
:101B5C00056523A2F6B206C61D05935637006374BD
:101B6C00E500930600203307D600372500202324F8
:101B7C00E5B223A0E522E1162312D60023130600BA
:101B8C001CC3998FE1172312F700231307008D3F15
:101B9C00B240B7270020239DA7B241018280B7270E
:101BAC0000203727002083A7C7B2832647B2014500
:101BBC006393F600828003D7670011E703D74700D1
:101BCC006373E5003A859C43E5B7B7270020B72639
:101BDC00002083A7C7B203A646B22A87B305B54037
:101BEC006314F6003A8529A8938687009C43E36921
:101BFC00D7FEE377F7FE2E85E3E4D5FEE3F2F5FEA0
:101C0C00828023AC05FE1C4191E7010001000CC150
:101C1C008280BA8703A787FF6DFF23ACB7FE828053
:101C2C001DC18346E5FF1307F00F9147639EE60045
:101C3C00411106C697E0FE1FE780404CB240814739
:101C4C003E854101828095473E85828001E90145B0
:101C5C0082800145B2402244410182809565411148
:101C6C00938505D022C4C98D2A842105C20542055D
:101C7C00C181418106C697E0FE1FE780E03B71D928
:101C8C00FD5723200500231285002303F5002105B1
:101C9C00D1B7411126C2B724002083A704B322C4B4
:101CAC004AC006C60144014989E7A1659D2F15C4A8
:101CBC0001A803C7E7FF6319A70205CCA165892911
:101CCC0003A704B3832784FF6317E40223A8F4B2A9
:101CDC00FD57232C04FE230FF4FE2285B240224430
:101CEC00924402494101828011E03E8983A787FF1B
:101CFC0065BF3E84E5BF232CF9FED9BFB1CDB72714
:101D0C00002083C757B3411122C406C62A842E85EE
:101D1C006375F400894763E8870019370D45B240B5
:101D2C0022444101828083A785FF99E703C7E5FF21
:101D3C009307F00F6305F700E5351545CDB737254B
:101D4C000020238F85FE130505B3653D22852244B3
:101D5C00B240A16541016DAE15458280B7270020C8
:101D6C0023A807B28280B727002083A787B899E3FE
:101D7C003E85828003D727006316B70003C7070090
:101D8C00E308A7FEDC47E5B7BDCD797122D406D6B2
:101D9C0026D24AD04ECE01444147B3D78540858BDD
:101DAC00B1CF1205314722953305E502B727002044
:101DBC0003A987BC8544B3948400C204C180BE8946
:101DCC002A990327090011C7032549002EC602973B
:101DDC00B24531473304E40283A789BC3E941C44CA
:101DEC0089E72320090023220900B2502254A58D33
:101DFC0002599254F2492E85456182800504E31EF6
:101E0C00E4F88144DDB72E858280411113970501DA
:101E1C0022C406C626C24AC041872E84635E0700D0
:101E2C008D3D11C1F53BA1673D8C2285B24022440A
:101E3C009244024941018280EDD9AA87014741466B
:101E4C00B356E440858A9DCA9207BA97B146B387C8
:101E5C00D702B726002003A986BC8544B394E400BE
:101E6C00C204C1803E99832709000325490082974B
:101E7C002320090023220900258C45BF0507E31107
:101E8C00C7FC8144D5BFB727002083A7C7BA41112F
:101E9C0022C406C6372400201304849891C7829765
:101EAC001C403E9508C031A0B727002083A707BD72
:101EBC00FDF70840B74703009387D73F3305F5027A
:101ECC00B7A72600938737ECB2403E9508C0224452
:101EDC00410182800111680006CE22CC26CAEF4057
:101EEC00D10CFD57630BF50C372400209306C4B8B6
:101EFC0083C7560132471304C4B863F5E70AB72405
:101F0C000020938444B398483706C0A8630BC702DB
:101F1C00B727002083A707BD829732479C4863737D
:101F2C00F700BA8703475401998F3E9583076401E4
:101F3C0063CE0700B707C0A8636AF500B707405720
:101F4C009DA88386660163D406061D8D3724002068
:101F5C00930744E79C4F130444E799CBB727002021
:101F6C0083A6C7ED3707CDFF7D179C46F98F9CC61E
:101F7C0019E13705C0A8B727002083A707BB8297B4
:101F8C0019E51C4C85C3EF005214EFF0316A1C4C60
:101F9C0091CBB727002003A7C7EDB70633001C472A
:101FAC00D58F1CC7F2406244D24405618280E37E27
:101FBC00F5F8B307F7403E9551BF372400201304C2
:101FCC0044B31C48B704C0A8E38E97FCB727002085
:101FDC0083A707BD8297372700201307C7B883460E
:101FEC0057011C48958F3E9583076701E3C007F6A0
:101FFC00E36E95F4A1B76DC53748F6A6130808C86B
:10200C0089476360C80E7971B727002022D45AC85B
:10201C0003A887BC3E8B06D626D24AD04ECE52CCD5
:10202C0056CA5EC662C40144B148C147B30B14031F
:10203C00137CF40F3303780103230300631D03089F
:10204C00AE8AC165AA84938505F041453A8AB68962
:10205C00328997E0FE1FE78020FE05E9B7270020B4
:10206C0083A7C7BB99EF8147B250225492540259AF
:10207C00F249624AD24A424BB24B224C3E854561F0
:10208C008280814511458297F9BFB726002003A7AE
:10209C0086B815EF23A4A6B82300050083278BBCB4
:1020AC00054733148700232605002324250123111B
:1020BC00850023224501DE9784C323A2570123A464
:1020CC004701E38209FA2380890171BF368754479F
:1020DC00F5FE48C7D1B70504E31AF4F4A14769B774
:1020EC0089473E858280B727002083A7C7BC411152
:1020FC0022C406C637240020130444B389C7829730
:10210C005C483E9548C84848B24022444101828010
:10211C00B727002083C757B36370F5023727002019
:10212C0093171500032547B83E9583570500DD8DA1
:10213C002310B500014582800D458280B727002011
:10214C0083C757B36372F502372700209317150026
:10215C00032547B893C5F5FF3E9583570500FD8DC4
:10216C002310B500014582800D4582809307F00253
:10217C0063E7A70AB146B306D502B727002003A729
:10218C0087BC89473697184341CF011122CC4EC6E4
:10219C000544935945003D893315A40013140501DA
:1021AC00418026CA4E85AE84A2854AC806CE653EBD
:1021BC002A89814729CDA2854E854937B72700202A
:1021CC0083A707BD8297B727002083D7C7B52A847A
:1021DC0013060064338797028146B3B79702130541
:1021EC000732B335E500BE95EF90B237B727002024
:1021FC00838727BA229563C90700B707C0A8636510
:10220C00F500B70740573E952324A9008147F240BB
:10221C006244D2444249B2493E8505618280894775
:10222C003E85828001114EC6B7290020938949B39F
:10223C0083C7190006CE22CC26CA4AC852C4636B87
:10224C00F5000145F2406244D2444249B249224A67
:10225C0005618280B727002083A407BDFDD02E8A9C
:10226C0083D589022A843289B387C5028146B3B5E6
:10227C00C50213850732B337F50013060064BE950B
:10228C00EF90322EB747F6A6938707C8E3EBA7FA71
:10229C00829483D58902AA8413060064B38725032C
:1022AC008146B3B5250313850732B337F500BE95C8
:1022BC00EF90322BB72700201387C7B803076701AD
:1022CC00AA941389C7B863490700B707C0A863E588
:1022DC00F400B7074057BE94D2852285693401C5F6
:1022EC0004C5054585B7936504F0C205C181414518
:1022FC0097E0FE1FE78040D401E983270903B1D39F
:10230C00A2851145829735BF37270020832787B8D0
:10231C008DE32324A7B885472326050004C5231184
:10232C00450123008500A300F5002322050055BFBD
:10233C00BA87D84775FFC8C7F9BF41C9797122D48C
:10234C0026D24AD04ECE52CC56CA5AC85EC662C4A9
:10235C0006D6B689B28A2E8A2A899304000C414487
:10236C00372B0020054C930B000383278BBCA697BF
:10237C009C43A1E79375F400B315BC00C2055686C7
:10238C00C18113554400793D0DC983278BBC014590
:10239C00BE9423A0240123A244016384090023805A
:1023AC008900B250225492540259F249624AD24ADC
:1023BC00424BB24B224C4561828005041374F40FDE
:1023CC00B104E31474FB2145E9BF09458280411136
:1023DC0022C426C24AC006C62A842E89B2849935E4
:1023EC00CA852285493205CDB727002083D5C7B5CC
:1023FC002A8413060064B38795028146B3B595020F
:10240C0013850732B337F500BE95EF90921548C08F
:10241C000145B24022449244024941018280214547
:10242C00CDBF411122C426C24AC006C62A892E84B9
:10243C001D3AAA8419C123110500A2854A85FD39CC
:10244C00B727002083C747B363992701B72700201C
:10245C0003D707B8598C239087B8014591E01945EB
:10246C00B240224492440249410182809307F00217
:10247C0063E8A7044111B14722C43304F50226C214
:10248C00B724002083A784BC06C6A297984389472B
:10249C0015C39377F5008545B395F500C205C18149
:1024AC001181413783A784BCA29723A0070023A2E4
:1024BC0007008147B240224492443E85410182800C
:1024CC0089473E858280411106C622C4693811E5D0
:1024DC000145B240224441018280B727002083A7E6
:1024EC0007BD00458297B7270020838727BA63D89A
:1024FC000702B747F6A63305A4409387F7C7E3E96D
:10250C00A7FC93070064B335F50237270020035668
:10251C00C7B581463305F502EF90B2045DBFE37A8F
:10252C00A4FCB707C0A83E94E9B74111B727002017
:10253C0006C623A6A7BC0295B240B727002023A647
:10254C00A7B4014541018280994763E9B700B727D9
:10255C0000208A05938747B6BE9588C18280B7272D
:10256C00002023A407B837250020B72700204111ED
:10257C0023A607BC7146B72700208145130545B635
:10258C0006C623A807BC22C426C23724002097E025
:10259C00FE1FE780A0C7130544B31306C002814594
:1025AC0097E0FE1FE78080C6EFF00FD8B72700201A
:1025BC0083C737BA130444B3854513D527008D8BD5
:1025CC003E958D473305F5029947B7240020390510
:1025DC001375F50F2301A4003305F502130505242B
:1025EC0097E0FE1FE78040A523A4A4BC49C1034685
:1025FC002400994781453306F6021306062497E01A
:10260C00FE1FE780A0C083A784BC03472400B72427
:10261C000020938707240A0723A0F4B6BA9737271C
:10262C0000202322F7B8EFF06FF30D21834714003D
:10263C0083A604B637260100139727003697130696
:10264C0046D910C3138717001377F70F0A073726DD
:10265C0001003697130666E110C31387370089070C
:10266C0093F7F70F8A07A300E400B69790C3B24024
:10267C00224492444101828037270020130747B33C
:10268C00834717008346270063F0D702B726002044
:10269C0083A606B613861700A300C700139727005E
:1026AC00369708C33E8582809307F00FE5BF1C4127
:1026BC00638B071041777D8FB70600208947631520
:1026CC00D7100357450063010710411126C2194664
:1026DC00AA849305F00F690506C622C497E0FE1F75
:1026EC00E780C0BC05478D476309E50C9C4491C746
:1026FC00D858994779C3985C69C3372400201306CE
:10270C00C00381451305C4B897E0FE1FE78000B0F5
:10271C001306C003A6851305C4B897E0FE1FE78017
:10272C0060AB9307C4B803D7C70009E713070010C1
:10273C002396E70003C7E70001E705472387E70077
:10274C0003D7070101E76D472398E70003C7F7009C
:10275C0001E71547A387E70003C7270101E70547F2
:10276C002389E70003C7370109E703C7F700A389EB
:10277C00E70003C7470101E73547238AE70003C792
:10278C00970109E713078002A38CE70003C75701E1
:10279C0009E71307D002A38AE70003C7840109E7FE
:1027AC001307C003238CE7009C5791C78297B72768
:1027BC000020239EA7B265338147B2402244924445
:1027CC003E854101828089473E858280B727002063
:1027DC0083A707BD011106CE22CC26CA4AC84EC615
:1027EC00829793070064B335F50237290020130450
:1027FC0049B38359840281464E863305F502EF9026
:10280C004256004CAA84014563049402130949B34F
:10281C0033858440636C94004E868146370500B046
:10282C009305E041EF90E253018D2695232C9900FE
:10283C00F2406244D2444249B2490561828001119E
:10284C0022CC2E84B7C503000A8541469385C51B4F
:10285C0006CEEF90920A180806043A94B727002087
:10286C00035504FF83D7E7B5F2406244AA97374576
:10287C000F00130505243355F50205618280B72737
:10288C00002083D7E7B551471D45637CF702794794
:10289C0019456378F7021307200315456373F70294
:1028AC001307B0041145637EF700130740060D456E
:1028BC006379F7001307600909456374F70013B5D2
:1028CC00B70F8280011122CC06CE2A842EC6EFF0DF
:1028DC008FDBB245F240818D33A5A502229562446F
:1028EC001375F50F05618280011122CC06CE2A8466
:1028FC002EC6EFF04FD9B245F240818D33A5A5021B
:10290C00229562444205418105618280011122CCED
:10291C0006CE2A842EC6EFF00FD7B245F240818D39
:10292C0033B5A5022295624405618280B727002049
:10293C001387C7B818572DC3411122C426C24AC0E9
:10294C0006C61389C7B80297B7270020138747B369
:10295C00035787002A84938447B30DCBBA876373DC
:10296C00A700AA87C207C183BA866373E400A28654
:10297C00C206C182958F5147635AF7008327C9025B
:10298C0091C38297EFF0B15E23948400B24022444D
:10299C0092440249410182808280B727002013872C
:1029AC00C7B85857011122CC06CE1384C7B801C73B
:1029BC002AC602973245B7270020938747B337279B
:1029CC00002015C1B7863200938626A194D7232800
:1029DC00A7BC372501001305857D813EF24062447A
:1029EC0001450561828083466401139686016186E8
:1029FC0063550602B7863200938626A123AE0700E4
:102A0C0094D7B7C70040FD5623A4D726B70700209C
:102A1C009387C75D2328F7BC6DBF13F6160019CA40
:102A2C00B7862003938606D094D7B70700209387E8
:102A3C00E760CDB761762394C70291C69306003246
:102A4C002395D702DDB793062003DDBF011122CCFD
:102A5C00372400209307C4B8884706CE26CA4AC834
:102A6C0001E90545F2406244D24442490561828045
:102A7C001304C4B85C58F5D7185C65D7700085454D
:102A8C0082971844B247E30EF7FC0355C400930534
:102A9C00E004B724002097D0FE1FE780E05913878D
:102AAC0044B308D3938444B34DDD0356C40093055B
:102ABC00F00F014997D0FE1FE78040758347E40073
:102ACC009050634DF900328597D0FE1FE78000636C
:102ADC00014523A0040223A2040269B78355C40054
:102AEC000844185CB3872503898105093E9508C203
:102AFC000297E9B701114EC6B72900209387C9B8D0
:102B0C009C4726CA4AC852C406CE22CC56C25AC0CA
:102B1C002A8AAE843289638C071E9389C9B803A7AD
:102B2C004903630207127D476361A7123724002013
:102B3C00130744B3832A0702130444B3639A0A08A5
:102B4C0003D5C9009565938515E097D0FE1FE780E6
:102B5C00A04E08D02A8665C983D5C90083A749032E
:102B6C0003A589008981829783A78900832A04029F
:102B7C005CD089476316FA08C1476396F40C83D579
:102B8C00C9009147938505FCB3C5F5028A05D69516
:102B9C0003C705009307A0056313F70A83C7150045
:102BAC00639F47094A852686910597D0FE1FE780CB
:102BBC0060621C505685639357130145F240624482
:102BCC00D2444249B249224A924A024B0561828060
:102BDC005850E380E7FA03D5C9009565938525E045
:102BEC0097D0FE1FE7804045AA8A31CD83D5C90016
:102BFC002A8683A7490303A589008981829795BFFB
:102C0C008D47631BFA00C147639FF40283D5C9004B
:102C1C00938545FDF199A5BF91476318FA0063941C
:102C2C00440383D5C900A115F5B7C147631DFA004C
:102C3C00A14763EA970083D5C900C115E1BF1C50B9
:102C4C0056856391570D294595BF1307F006636CA4
:102C5C00A708930A05FE1947B3CAEA0203D7C900AD
:102C6C00372B0020B38AEA02BE9A93074BB3DC538E
:102C7C00130B4BB36395570103240B021DE003D5D3
:102C8C00C9009305E00497D0FE1FE780E03A2A8440
:102C9C005DD983D5C90083A749032A8689815685C6
:102CAC00829791451307A005898193972500A297D8
:102CBC0083C607006393E60483C61700639C460330
:102CCC0085058A052686A2954A8597D0FE1FE78042
:102CDC00605083270B02E38287EE228597D0FE1F7C
:102CEC00E780C041D9BD1307E007E36EA7F4930A50
:102CFC0005F9ADB783D5270045BF83270B02E384C5
:102D0C0087F4228597D0FE1FE780403F2DBFB72761
:102D1C00002083A547B585D991479306A0058983E3
:102D2C00139727002E9703460700E31ED6F00346A1
:102D3C001700631C460185078A072686BE954A85BF
:102D4C0097D0FE1FE78000498DBD83572700C1BF78
:102D5C00B72700209387C7B8984729C3985F1DCF22
:102D6C008546631DD502411122C43724002013046B
:102D7C0044B3105006C619CE83D5C700485089817C
:102D8C000297085097D0FE1FE7804037232004029B
:102D9C0023220402B240224441018280828001112C
:102DAC0022CC372400209307C4B856C283AA8700CC
:102DBC0026CA4AC84EC606CE52C42A89AE84B289E7
:102DCC001304C4B8638B0A1C1C5C99EB2945F240B4
:102DDC006244D2444249B249224A924A05618280F5
:102DEC005C58EDD7FD4763E7A70C372A0020930703
:102DFC004AB39C53130A4AB3B9C7084483274A02FF
:102E0C00639FA70489476317F906C147E390F4FC55
:102E1C000355C4009147130505FC3345F502931780
:102E2C00250003250A022686CE853E959307A0052C
:102E3C002300F500A3002501110597D0FE1FE780A4
:102E4C006039014569B70355C4009305E00497D078
:102E5C00FE1FE780601E2320AA0245F185BF835523
:102E6C00C4005C5803260A02898182971C442322E1
:102E7C00FA0249BF8D47631CF900C147E398F4F48B
:102E8C000355C400130545FD9377C5FF59BF914702
:102E9C006318F900E39C24F30355C4002115EDB726
:102EAC00C147E315F9F2A147E3E297F20355C400D9
:102EBC004115D9BF9307F00663E9A706930705FEF2
:102ECC001947B3C7E7020357C400372A0020B3875A
:102EDC00E702BE9A93074AB39C53130A4AB3A9CF8D
:102EEC0083274A026396570703250A029146130863
:102EFC00A005FD5593D72600C207C1831397270061
:102F0C002A970346070063140607834817000356E5
:102F1C002700639C2805B306D64063C69604850734
:102F2C008A072686CE853E9509BF9307E007E3EF17
:102F3C00A7E8930705F941BF0355C4009305E004C6
:102F4C0097D0FE1FE780400F2320AA0251F9BDBD88
:102F5C008355C4005C5803260A02898156858297E2
:102F6C0023225A0351B7A300B700B28661B70356A8
:102F7C00C400B38596009105130606FCE3F8C5E47E
:102F8C00138634001376C60F1106B2962300070180
:102F9C00A30027012311D70059B7372A0020930724
:102FAC004AB39C53130A4AB3A1C303250A029146A0
:102FBC001308A005FD5593D72600C207C1831397AC
:102FCC0027002A970346070063120605834817005B
:102FDC000356270063982801B306D640E3D196F434
:102FEC00A300B700B286C1BF0345E4008357C400F9
:102FFC009305E0043305F5024205418197D0FE1F8D
:10300C00E78080032320AA024DF1C9B30356C40004
:10301C008345E400B385C502338696001106E3E7C9
:10302C00C5DAB9BF0145828083C705002300F500CE
:10303C0083D72500A300F50083D72500A1832301A6
:10304C00F50083C74500A301F50011458280B72721
:10305C00002023AE079AB727002023AC079A828062
:10306C0029C1411126C206C622C4AA8401458DC5B8
:10307C002E84B7C50300228541469385C51C97D085
:10308C00FE1FE780201583C7040005452306F400C6
:10309C0083C71400A306F400B240224492444101B9
:1030AC00828001458280011122CC26CA06CE0947B6
:1030BC00AA8432846381E50441468147639BC50041
:1030CC00638FE6006397B6000DA841478147638E76
:1030DC00E600F2406244D2443E85056182808A85D6
:1030EC002285BD3F41468A8519A88A85953F414670
:1030FC008A85228531A0E39AB6FC2E86A285268588
:10310C0097D0FE1FE780E015AA87E1B7B72700200C
:10311C0023ACA79A8280B727002023AEA79A82807F
:10312C00011122CC0354650006CE26CA4AC84EC6ED
:10313C0041C083298500AE842A8803C909008147D0
:10314C0013178901618763550702B147054563FA77
:10315C0087045114420403552800418033878900A9
:10316C00A2864E868545EFC0401DB337A00085076B
:10317C007D1413556900420405891379F9034180C4
:10318C002380F400A380A4002381240123928400D3
:10319C00014719C01387190098C409476383E700D6
:1031AC000145F2406244D2444249B24905618280F1
:1031BC000545C5BFC167F917630AF502D94763F71F
:1031CC00B702011122CC2EC606CE2A84EF90C0572E
:1031DC00B2456368B50022856244F24005616FA078
:1031EC00B07DF240624405450561828005458280D0
:1031FC00C167F9176314F5006F900055411106C6AD
:10320C00EFA0506A11E15D45B240410182809147C7
:10321C006394F502834705002300F60083472500DD
:10322C0003471500A207D98F2311F60083473500F9
:10323C0001452302F60082801145828041118145AF
:10324C0022C426C206C6AA8405252A8409E9B72702
:10325C00002083A7879B81C7F94526858297228505
:10326C00B240224492444101828039714ED656D2EA
:10327C005AD006DE22DC26DA4AD852D4AA8A2E8B01
:10328C00B28941EF36C6AD379145EF90A05DAA8467
:10329C004D492DC9B246054A238034010544630AC1
:1032AC000B00B68513851400029B0505131405014C
:1032BC004180E20993D9894163D30902C1455685FE
:1032CC00EFA0906C654905E933868400A2852685BC
:1032DC00EFB0D04B2A8905E131044204418091477B
:1032EC002C085685231CF10026CE231D8100EFA04F
:1032FC00A0722A8901C963070A00268597D0FE1F90
:10330C00E780C0DFF25062544A85D2544259B25918
:10331C00225A925A025B21618280BA84014AADBF63
:10332C00011122CC26CA4AC84EC606CE2A8932843E
:10333C00B689253FAA840DE1B727002083A7C79B38
:10334C0081CF05476317E40003C409000504137417
:10335C00F40FA2854A858297F24062442685424941
:10336C00D244B24905618280AE86B735010001476F
:10337C000546938545036DB783D705002300F500FB
:10338C0083D70500A183A300F5000945828083D76C
:10339C0005002300F50083D70500A183A300F500E9
:1033AC0083D725002301F50083D72500A183A30132
:1033BC00F5001145828083D705002300F50083D7E3
:1033CC000500A183A300F50083D725002301F50098
:1033DC0083D72500A183A301F50083C755002302E1
:1033EC00F50083C76500A302F50003D58500190518
:1033FC0042054181828083D705002300F50083D7E5
:10340C000500A183A300F5000945828083D7050040
:10341C002300F50083D70500A183A300F50083D713
:10342C0025002301F50083D72500A183A301F50016
:10343C001145828003D545000605420541818280F5
:10344C0083D705002300F50083D70500A183A300D3
:10345C00F50003D52500090542054181828083D7FB
:10346C0005002300F50083D70500A183A300F50018
:10347C0083D725002301F50083D72500A183A30161
:10348C00F50003D54500110542054181828083C7B3
:10349C0005002300F5000545828083D70500411106
:1034AC0022C406C62300F50083D705002E8411051F
:1034BC00A183A30EF5FE83D725009505230FF5FEFA
:1034CC0083D7D5FFA183A30FF5FE03C6F5FF97D0D5
:1034DC00FE1FE78020D003454400B2402244110572
:1034EC00410182808947639CF5008347150003479F
:1034FC0005000145A207D98F2310F60082801145E3
:10350C00828003D70500D94763FEE702011122CC64
:10351C0006CE2EC62A84EF902023B24683D706000F
:10352C00636DF50022856244F240B7350100014716
:10353C0009469385453805610DBBF2406244094547
:10354C00056182800945828091479DC583460500AF
:10355C00FD15C2058547C1816392F60213D725007C
:10356C008D89914791E9914701CB05052301D6003F
:10357C002310E60048C281473E8582800947914767
:10358C00E39CE6FEC94733D7F502B3F5F502D1BF8C
:10359C00AE86B7350100014711469385A539F1B1C7
:1035AC0093F7350091EB8981914789C52310B600BB
:1035BC0048C281473E8582809147EDBF03C74500D5
:1035CC008947631AF702011122CC2A84C84506CE1A
:1035DC00AE86014719C52EC69D45EFE00FDFB246FA
:1035EC002A8722856244F240B7350100194693853B
:1035FC00253C05619DB90945828099E11145828080
:10360C008347050005472311F600E379F7FEFD1506
:10361C0093F5F50F33D7F502B387E702E390F5FE88
:10362C00050548C22310E6000145828083C745008A
:10363C000947AE866385E70041476399E700B735D4
:10364C000100014721469385654A05B109458280F1
:10365C002310B60091E1014548C201458280AE8637
:10366C00B73501000147294693852540FDBE23103F
:10367C00B60091E1014548C201458280AE86B7355E
:10368C0001000147314693858541C5B62310B6002C
:10369C0091E1014548C20145828003D74500854729
:1036AC0063FDE702011122CC2A84884106CE0DC1AC
:1036BC002EC68545EFE06FD12A8722856244B2463B
:1036CC00F240B7350100394693850544056171BE5A
:1036DC00F240624409450561828009458280914728
:1036EC009DC5034705008D46914763F2E602FD1523
:1036FC00C205C181B3C6E5023308D702639905013F
:10370C0005052310D6002311E60048C281473E85EB
:10371C00828083C745000947AE866385E700414731
:10372C006399E700B7350100014741469385654A27
:10373C002DBE09458280B335B000139525008280DB
:10374C00011122CC26CA06CE03C785008547AA8460
:10375C002E8449466310F702613C835724004915B7
:10376C001306200963C8A700F2406244D2440945FD
:10377C00056182800347940085476314F700136644
:10378C000604484011C58D4532C6EFE00FC43246E1
:10379C00A2866244F2402A872685D244B7350100BE
:1037AC009385C5440561D1B48D4763FFB702834748
:1037BC00150003470500F115A207D98F2310F60059
:1037CC008347350003472500C205A207C181D98F65
:1037DC002311F6002312B60089C5110508C6014550
:1037EC00828023240600E5BF11458280011122CC82
:1037FC002A84884506CEAE8611C52EC69545EFE0C7
:10380C00CFBCB2462A8722856244F240B73501000C
:10381C0059469385A546056189BCB335B00013950F
:10382C0025008280AE86B73501000147614693853D
:10383C00A54925BC8547114563F4D702834716007B
:10384C0083450600A207CD8F2310F7009387E6FF70
:10385C002311F70089476386F600090650C301451A
:10386C00828023220700E5BF0147814679468145C6
:10387C00EDBA83D705002300F50083D70500A1839B
:10388C00A300F5000945828083C725000547230066
:10389C00F50003D505006397E7000A050505420509
:1038AC0041818280C9473305F502CDBF03D50500A0
:1038BC000A0542054181828083D725002300F5004B
:1038CC0003D5050083D725003305F5020505420510
:1038DC004181828003D50500828003D5050082805A
:1038EC0003D50500828083D725002300F50003D57E
:1038FC00050083D725003305F502050542054181F6
:10390C00828083D705002300F50083D70500A183AF
:10391C00A300F50083D725002301F50083D72500EC
:10392C00A183A301F50003D5450011054205418192
:10393C00828083D705002300F50083D70500A1837F
:10394C00A300F50003D525000905420541818280BD
:10395C0089471145639BF600834716008346060092
:10396C000145A207D58F2310F700828003D70500ED
:10397C00D947AE8663F9E700B745010001470D460C
:10398C009385E58771BA0945828011456393A60238
:10399C0083471600834606000145A207D58F2310E6
:1039AC00F7008347360083462600A207D58F2311E4
:1039BC00F700828083C725000547FD1793F7F70FA3
:1039CC006361F70483D705008DCF011122CC2A84C3
:1039DC00C84106CE15C12EC68945EFE00F9F2A8738
:1039EC0022856244B246F240B745010015469385E4
:1039FC00458905616FF0DF92F2406244094505612B
:103A0C008280094582809547114563F9D70641119B
:103A1C0022C426C24AC006C683471600BA8403478E
:103A2C000600A2073284D98F2390F4008347360016
:103A3C000347260093054400A207D98F2391F40075
:103A4C0089472382F400094613855400368997C0B0
:103A5C00FE1FE78020789307A9FF2394F400994771
:103A6C00631BF90023A60400B2402244924402498D
:103A7C000145410182801904C0C4FDB7828083D7FF
:103A8C0005008DCF011122CC2A84C84106CE15C168
:103A9C002EC68545EFE06F932A8722856244B24695
:103AAC00F240B74501001D469385858B05616FF08B
:103ABC003F87F24062440945056182800945828056
:103ACC0099476395F6048947411106C62302F7000E
:103ADC008347160083460600B285A207D58F2310B4
:103AEC00F700834736008346260003464700A207AB
:103AFC00D58F130557002311F700910597C0FE1FB2
:103B0C00E780406DB240014541018280D1471145AB
:103B1C006394F600C1474DBF828083D705008DCFDB
:103B2C00011122CC2A84C84106CE15C12EC6894566
:103B3C00EFE0AF892A8722856244B246F240B7454E
:103B4C00010025469385458C05616FF06FFDF240B1
:103B5C006244094505618280094582808947114587
:103B6C00639BF60083471600834606000145A207B7
:103B7C00D58F2310F7008280011122CC2A84C841F2
:103B8C0006CEAE86014719C52EC68545EFE0EF83FC
:103B9C00B2462A8722856244F240B74501002D4681
:103BAC009385058E05616FF0AFF711456393A602FF
:103BBC0083471600834606000145A207D58F2310C4
:103BCC00F7008347360083462600A207D58F2311C2
:103BDC00F7008280011122CC2A84C84106CEAE8621
:103BEC0011C52EC68545EFD05FFEB2462A872285C9
:103BFC006244F240B745010035469385658E0561F8
:103C0C006FF00FF293F71600114589EB8947638724
:103C1C00F60085822312D70010C301458280011162
:103C2C0022CC2A84C84106CE15C12EC68545EFD0BC
:103C3C00DFF92A8722856244B246F240B74501007B
:103C4C003D469385C58E05616FF08FEDF240624461
:103C5C0009450561828083D705008DCF011122CCE7
:103C6C002A84C84106CE15C12EC68945EFD0FFF572
:103C7C002A8722856244B246F240B7450100454688
:103C8C009385258F05616FF0AFE9F24062440945D9
:103C9C000561828009458280854763FCD702230435
:103CAC00A700A304B7008347160083450600A207AC
:103CBC00CD8F2310F7009387E6FF2311F700894778
:103CCC006386F600090650C3014582802322070053
:103CDC00E5BF11458280014781464D4681456FF015
:103CEC002FE48D47114563FBD702834716008345AC
:103CFC000600A207CD8F2310F700834736008345BB
:103D0C002600A207CD8F2311F7009387C6FF23123D
:103D1C00F7006386A600110610C701458280232494
:103D2C000700E5BF011122CC2A84884506CEAE8659
:103D3C0011C52EC69545EFD05FE9B2462A8722857C
:103D4C006244F240B74501005D469385E5900561FC
:103D5C006FF00FDD854711456397F600834706002A
:103D6C0001452300F7008280014781466546814565
:103D7C006FF00FDB011122CC2A84C84106CEAE862F
:103D8C00014719C52EC68D45EFD03FE4B2462A87B0
:103D9C0022856244F240B74501006D469385E59358
:103DAC0005616FF08FCC011122CC2A84C84106CE5C
:103DBC00AE86014719C52EC68D45EFD01FE1B24620
:103DCC002A8722856244F240B745010075469385E7
:103DDC00E59305616FF06FC9011106CE2EC6EFA0F9
:103DEC00802801C9B245F2400355250005616FE0FA
:103DFC00E07DF240494505618280B7270020A3840D
:103E0C00079EB72700202384079EB727002023A8EE
:103E1C00079CB727002023AA079CB727002023ACB8
:103E2C00079CB727002023AE079CB727002023A6AA
:103E3C00079CB727002023A4079CB7270020239AB0
:103E4C0007BE93064038938747BF2391D702F1767C
:103E5C001307400B938606B82391E7002392D702F1
:103E6C0011679D46130600059305000A1305007D96
:103E7C002392E7002393D70241478546130810F895
:103E8C002395E7002396E7002399E700239AE700A0
:103E9C00239BE700239CE7002394E7022396070368
:103EAC002393B7002394B7002397C7002398C70028
:103EBC00239DA700239E0700239F07002390070242
:103ECC002395D702239707021308F00723980702BC
:103EDC002392E7042393E704239FE7042390E70648
:103EEC002391E7062392E706239907031307C01CC7
:103EFC00239AD702239BD702239C0702239D0702F8
:103F0C00239E0702239F0702239007042391D704C3
:103F1C0023940704239507042396D7042397C704F7
:103F2C002398C7042399A704239A0704239B070407
:103F3C00239C0704239DC704239EC7042393A70631
:103F4C002394070623950706239607062397B7069F
:103F5C002398B70623990706239AE7065147239D12
:103F6C00E7067D57239B0706239C0706239ED7064F
:103F7C00239F07062390E7088280011126CAAA8492
:103F8C00214522CC06CE2E8432C636C43AC2EFD09E
:103F9C00FFCB1DC9A24612473246930700FD2300F2
:103FAC00F5009947A30095002301F5002303D500E4
:103FBC00A303E5002312C500AA8522856244F240C2
:103FCC00D24405616FD09FD3F2406244D244056164
:103FDC008280B727002023A8A79C8280B7270020C7
:103FEC0023AAA79C8280B727002023ACA79C8280A1
:103FFC00B727002023AEA79C8280011122CC4AC88F
:10400C0006CE26CA2A890144B30489006368B40029
:10401C00F2406244D2444249056182802EC6EFD000
:10402C009FE693170501C183A183B2452380F40059
:10403C009307140093F7F70F850463F9B700CA9739
:10404C0009042380A7001374F40F7DBF3E847DBF49
:10405C00411122C437240020130444BD03556400CD
:10406C00C16706C6FD17630FF500B727002003C60E
:10407C0007D3B72500209385059EEF90D05CFD57A4
:10408C002313F400B24022444101828009C9251552
:10409C001375F50F1335850E1345150082800145F8
:1040AC00828023900500C9C6797122D426D24ECEC7
:1040BC0052CC5AC806D64AD056CA5EC63684328A04
:1040CC00AE892A8B814463F34407B307940083C7FA
:1040DC000700138914004209939A070193DA0A0125
:1040EC001359090163840A04CA976341FA04B3079C
:1040FC00240183CB07005E85513F0DC99387FAFFDE
:10410C002390F90063906B03130519002295B250AC
:10411C00225492540259F249624AD24A424BB24B4F
:10412C0045618280D694C204C18071BF0145C5B778
:10413C0001458280011122CC3724002026CA4AC8AE
:10414C004EC6930744BD06CE2E89D0CB8CCBC8C7A8
:10415C00AA8441469305F00F4A8597C0FE1FE7805D
:10416C00E0148549130444BD631935030848C1455F
:10417C00693541469305F00F268597C0FE1FE780F1
:10418C00E01205496315250348446244F240D244C9
:10419C004249B249C14505618DB5414681454A85C3
:1041AC0097C0FE1FE7808010E31535FDC1B741466F
:1041BC008145268597C0FE1FE780400FE30625FD4D
:1041CC00F2406244D2444249B249056182804111B5
:1041DC0022C43724002026C24AC0AE842A89130682
:1041EC0000028145130544BD06C697C0FE1FE7803B
:1041FC00E001930744BDA3812701B7270020238A40
:10420C0097D2EFE0E03E854719C181474945230A23
:10421C00F4BCB2402244924402494101828081475D
:10422C0081CD19C98547631BF50083C7550093E7FA
:10423C0007FCA382F50085473E858280894763177A
:10424C00F50083C7550093F7F703E5B70D4785478E
:10425C00E314E5FE03C755001377F7031367070450
:10426C00A382E500D1BF81478DC105C103C75500AD
:10427C009306000C85471377070C6308D700930649
:10428C0000048D476303D70089473E858280411126
:10429C0022C4005D06C626C21DC8AA84085009C5E2
:1042AC0097C0FE1FE78080E5485009C597C0FE1FE8
:1042BC00E780C0E4085409C597C0FE1FE78000E4FE
:1042CC00228597C0FE1FE78060E323AC0402B24056
:1042DC00224492444101828019E9B727002083C708
:1042EC0067BD91C7372500201305059C82803725B3
:1042FC0000201305C5BE8280B727002003C567BD0B
:10430C008280B727002003A507BE8280B727002034
:10431C0003A547BE8280B727002083A787BE8843AA
:10432C008280B7270020938747BDD44B984205075E
:10433C0098C203C537009307F00F6305F50091652C
:10434C006FD01FDD8280011122CC06CE2E8432C6A6
:10435C00EF9010629147B2456310F502B727002029
:10436C0083A7C79D95C303A30700630F0300228592
:10437C006244F24005610283B727002083A7479D62
:10438C0081C703A34700D5B7F240624405450561D8
:10439C008280011122CC2A840355450006CE26CA00
:1043AC004AC84EC6EF90F03A25CD2A8983440500C1
:1043BC008349C500E93D4A85EFA0A01A0355440086
:1043CC00EF905056372900201309899E8347090026
:1043DC00A1CF639B9704B727002083C5979E2685A2
:1043EC00EFF09F9F19E12300090003554400EF9063
:1043FC0030589147631FF500B7270020938747BDBE
:10440C008356440003D767006395E6007D572393DA
:10441C00E700F2406244D2444249B24905618280CD
:10442C0081499304F00F79BF9307F00FE38FF4FAEF
:10443C008346640003564400034524004E87A6853A
:10444C002D3E65B779715EC6AA8B2E8552CC56CAA5
:10445C005AC806D622D426D24AD04ECEAE8A328B39
:10446C00368AEF90102F7DC1045D2A89E5C09C50DF
:10447C00614599C3130540039C5481C751054205FE
:10448C00418163050A00710542054181DC5081C7F9
:10449C005D0542054181EFD06FFB2A8445C9614619
:1044AC00814597C0FE1FE78060D6B727002083C9DF
:1044BC0047C26394090083490900930700FD230058
:1044CC00F400A947A30074012301F4002303640141
:1044DC008C50231254011305840191C908C47146F0
:1044EC00930A440397C0FE1FE780C0CE56858C54B8
:1044FC0091C948C45146930A450197C0FE1FE780F5
:10450C0060CD5685630C0A0008C87146D285930AA3
:10451C00C50197C0FE1FE780E0CB5685CC5099C5EE
:10452C0048C85D4697C0FE1FE780C0CAA2854E856D
:10453C00EFD0CFFC2254B2509254F249624AD24A84
:10454C00424BB24B4A850259456191B3B250225449
:10455C0092540259F249624AD24A424BB24B4561DB
:10456C00828001114EC6AA892E854AC806CE22CC5D
:10457C0026CA2E89EF90F01D21C9B727002083C4CD
:10458C0047C299E0834405001945EFD02FEC2A84EB
:10459C0005CD8145194697C0FE1FE78020C79307BC
:1045AC0000FD2300F400B947A30034012301F400FB
:1045BC0023122401A2856244F2404249B249268565
:1045CC00D24405616FD08FF3F2406244D244424929
:1045DC00B2490561828039715ECEAA8B2E8526DAAE
:1045EC004ED652D456D25AD006DE22DC4AD8AE84ED
:1045FC00328BB68A3A8ABE8942C6EF90901521CD8D
:10460C002A894145EFD08FE42A8431C54146814542
:10461C0097C0FE1FE78080BFB727002003C547C2A5
:10462C0019E103450900930700FD2300F400BD4781
:10463C002301F400B247A300740123129400230455
:10464C006401A304540123054401A30534015CC493
:10465C00A285EFD0AFEAF2506254D2544259B2590B
:10466C00225A925A025BF24B21618280797126D2D6
:10467C00AA8439454AD04ECE06D622D42EC6B2894B
:10468C003689EFD0AFDC21C1B2459307000D231062
:10469C00F500B1472A842312B5002301F500CE851D
:1046AC001905194697C0FE1FE780C0B223062401E6
:1046BC00A2852254B2500259F24913F5F40F9254C8
:1046CC0045616FD0AFE3B250225492540259F24973
:1046DC0045618280411126C2B7240020938444BDD9
:1046EC0003C7340006C622C44AC09307F00F630CFC
:1046FC00F7042A893945EFD06FD52A8429C5930749
:10470C0000FDB72500202300F500A300250123019F
:10471C0005009385C5BE0D05194697C0FE1FE780A1
:10472C0060AB83D78400A28503C534002315F40045
:10473C0083C714002306F4002244B2409244024979
:10474C0041016FD0AFDBB240224492440249410197
:10475C00828001115AC02A8B314526CA4EC652C4DA
:10476C0056C206CE22CC4AC8AE84B28A368ABA89E0
:10477C00EFD0CFCD3DCD2A842685EF90807D11C51D
:10478C000347C500A1476314F704B727002003C9EA
:10479C0077BD930700FD2300F4009D47A30064013F
:1047AC002301F40023129400231354012314440115
:1047BC0023153401A2856244F240D244B249224A04
:1047CC00924A024B4A85424905616FD02FD3B727D5
:1047DC00002003C957D3E31E0BFAB727002083A789
:1047EC0087A99C47DDD7CE865286D68526858297AB
:1047FC004DB7F2406244D2444249B249224A924AED
:10480C00024B05618280011122CC2A84214506CEFF
:10481C002EC6EFD0AFC321C1B245930700FD2300D4
:10482C00F500C5472301F50083C73500A301F5004A
:10483C0083D745002312F50083C765002303F500D9
:10484C0083C77500AA85A303F50022856244F24054
:10485C0005616FD0AFCAF240624405618280397144
:10486C0062CC2A8C594526DA4AD84ED652D456D226
:10487C005AD05ECE06DE22DCAE8432C636C4BA8B8B
:10488C003E8BC28A468A8359010403494104EFD006
:10489C00EFBB25C93246930700FDA2462300F50065
:1048AC009547A301C500A30085012301F5002A84C7
:1048BC0019461105A9C2B68597C0FE1FE7808091E5
:1048CC0023066401230A24012315740123175401C0
:1048DC002318440123193401A2856254F250425921
:1048EC00B259225A925A025BF24B624C2685D25430
:1048FC0021616FD0AFC0814597C0FE1FE78000914A
:10490C00C1B7F2506254D2544259B259225A925AF7
:10491C00025BF24B624C21618280411122C437242C
:10492C000020130444BD8347240006C626C28DCB49
:10493C00B7240020AA8519461385049C97C0FE1F36
:10494C00E7804089034524009385049CEFF03F8D5C
:10495C002244B2401385049C924441016FD0104A0A
:10496C00B24022449244014541018280411126C249
:10497C00B7240020938744BD06C622C44AC003C78F
:10498C0037009307F00F938444BD6304F7042A891E
:10499C002945EFD0AFAB2A840DCD930700FD230042
:1049AC00F500A147A30025012301F50083C72400CE
:1049BC00B72500209385059CA301F5001946110528
:1049CC0097C0FE1FE780008103C53400A285EFD09D
:1049DC00EFB203C724008D476311F702B7270020FD
:1049EC0083A7879D99CB03A3870063080300224408
:1049FC00B2409244024941010283B24022449244A3
:104A0C00024941018280797122D406D626D24AD03D
:104A1C004ECE52CC56CA09445DCD2A8903550500A9
:104A2C00AE895144EF90E052AA8455C53727002037
:104A3C00930707D383C747008546BA8AFD1793F7B8
:104A4C00F70F494463F9F6080347C500A1476314FF
:104A5C00F700639209089C5C4544B5EF916593851A
:104A6C0045711305C00297B0FE1FE780E05C88DC3F
:104A7C002A8A4D442DC11306C002814597B0FE1FF2
:104A8C00E780C0788357090093064A0036852311C6
:104A9C00FA0071469305490036C697B0FE1FE780B1
:104AAC00607389472300FA0003C5C400B24603565D
:104ABC00090083C50AD3611513351500EFA0C07B1F
:104ACC002A8463860900CE852685EF90305901C46F
:104ADC002685EFF0CFFB2285B25022549254025916
:104AEC00F249624AD24A45618280B727002083C7C7
:104AFC0047D30547FD1793F7F70F637AF7088947F4
:104B0C0041CA011122CC26CA4AC84EC652C406CE8E
:104B1C00AA89368AB2842E89EF90A0432A84D14781
:104B2C0039C9485509C597B0FE1FE780205DF1458E
:104B3C00268597B0FE1FE780C06F48D4CD4705CDC2
:104B4C008346C40021478147639FE600630D0A003A
:104B5C000347A5010356050193062501AA854E8539
:104B6C00EF907057AA8703474400630F090013673F
:104B7C0067002302E400F2406244D2444249B24945
:104B8C00224A3E850561828013674700DDB7C9471D
:104B9C003E8582809307F00363EBA700B7270020C4
:104BAC00938747BF06053E950355050082804165F6
:104BBC007D158280011122CC2A842E8526CA06CE30
:104BCC00AE84EF9000391DCDB7470F009387F723C4
:104BDC00094563E4870281450A85414697B0FE1F6B
:104BEC00E780C062A685231081000A8541802301DD
:104BFC008100A3010100EFA0C047F2406244D244FF
:104C0C00056182804945D5BFB72700202389A7D2EB
:104C1C0082806FA08060797152CC2A8A328522D42E
:104C2C0026D24AD04ECE56CA5AC85EC606D662C4E2
:104C3C00AE8BB28A368BBA843E89C2894684EF9099
:104C4C00403115C92A8C63140A0213774B00834731
:104C5C00450015CF93E727012302FC008DEC631C64
:104C6C000902639A090205E8ED9B2302FC00832BE1
:104C7C008C0363910B08B250225492540259F2499E
:104C8C00624AD24A424BB24B224C45618280F59B20
:104C9C0093E70701D1B793E747002302FC0001CC4F
:104CAC001C484146A2852324FC0213058C0197B0B5
:104CBC00FE1FE780205263930B02D5D80325CC024C
:104CCC0009C597B0FE1FE7806043F145268597B074
:104CDC00FE1FE78000562326AC0251BFE30909F8FA
:104CEC000325CC0209C597B0FE1FE7802041F14592
:104CFC004A85F1BF9DC483A70B0299EB91659385FF
:104D0C003571714597B0FE1FE780003323A0AB02CD
:104D1C0003A50B0219C57146A68597B0FE1FE78047
:104D2C00604B6388090283A74B0299EB91659385CD
:104D3C0025715D4597B0FE1FE780003023A2AB02C2
:104D4C0003A54B0219C55D46CE8597B0FE1FE780C3
:104D5C0060481DC483A78B0299EB916593851571EF
:104D6C00514597B0FE1FE780202D23A4AB0203A56D
:104D7C008B0219C55146A28597B0FE1FE78080456E
:104D8C002254B2509254F249B24B224CCA865A86E3
:104D9C000259424BD6855285D24A624A45616FF020
:104DAC006FEA011126CA52C406CE22CC4AC84EC69E
:104DBC002A8AAE84EF90E01925C5AA893945EFC03F
:104DCC00FFE82A8431CDB727002003C947C26314FA
:104DDC00090003C909009307000D2310F400AD4727
:104DEC002301F4009385690013053400194697B02C
:104DFC00FE1FE780203E93F71400858085882306EC
:104E0C00F400A306940023154401A2856244F240E9
:104E1C00D244B249224A4A85424905616FC01FEE0D
:104E2C00F2406244D2444249B249224A056182802E
:104E3C0001114EC652C456C206CE22CC26CA4AC84E
:104E4C00AA8A2E8AB289EF90C0102DCD2A8913051B
:104E5C00C002EFC0BFDF2A8435C5B727002083C44A
:104E6C0047C299E0834409009307000D2310F40016
:104E7C00E9472301F4009305690013053400194632
:104E8C0097B0FE1FE7800035D2852315540113051A
:104E9C00C400414697B0FE1FE780C033CE85130592
:104EAC00C401414697B0FE1FE780C032A285624420
:104EBC00F2404249B249224A924A2685D2440561BF
:104ECC006FC0DFE3F2406244D2444249B249224A05
:104EDC00924A05618280411122C4372400201304B8
:104EEC00849C084006C619C597B0FE1FE7800021B8
:104EFC0023200400B240224441018280011106CEDD
:104F0C0022CC26CA4AC82EC6EF90A00439CDB24591
:104F1C00B727002003C947C20CD5AA846314090023
:104F2C00034905004145EFC07FD22A841DCD93076C
:104F3C00000D2310F500A5472301F50083C754008D
:104F4C00938564001105A30FF5FE194697B0FE1F5B
:104F5C00E78040289C54A285F2405CC46244D24451
:104F6C004A85424905616FC07FD9F2406244D24400
:104F7C004249056182801D71A2CC86CE2A842EC640
:104F8C00EF80307D05CD8346C5001147AA87494582
:104F9C006392E6029C5FB24599C383C56701B7066D
:104FAC0002002308B1009386262510088945228526
:104FBC00EF909001F6406644256182805145DDBF3B
:104FCC00B727002083C747D30547FD1793F7F70F83
:104FDC00637AF704894721CA411122C426C24AC008
:104FEC0006C6B2842E89EF80D0762A84D14705C5B7
:104FFC00630809008347450093E727002302F50067
:10500C004146A6851305840197B0FE1FE780801CDE
:10501C009C481CD48147B2402244924402493E85AC
:10502C0041018280C9473E858280797122D406D69F
:10503C002A842EC6EF80F07101CDB2452285230E55
:10504C00B1006C08EF90007EB25022544561828012
:10505C005145DDBF6F908006C1671387E7FF6395ED
:10506C00E502B727002083A7479D91EB4945828035
:10507C004945B2402244924402494101828003A333
:10508C000700E30503FE0283411122C426C24AC075
:10509C0006C6FD172A892E84B284639AF502B727B7
:1050AC00002083A7479D91CF9C4381CF829711E924
:1050BC00B72700202384279FB7270020A384979E1F
:1050CC004DBFA6854A85EFE03FD145F5D5B72E8576
:1050DC00EF80306851DD834705000D45E39B27F9D0
:1050EC0022852244B2400249A685924441016FD0E8
:1050FC00E04D9307F00363E2A7064111C16722C498
:10510C0006C626C2FD172A8409456382F502C547E7
:10511C00AE846313F4022E85EFD0005337250020A4
:10512C00130545BF06042A94231094000145B24090
:10513C0022449244410182809307A0036316F40039
:10514C002E85EFD06049D9BF9307B003E318F4FC68
:10515C0013F5F50FEFD08048D1B7094582800111C6
:10516C0006CE2AC6EFE07FC9EF203005EF101026DF
:10517C00EF60A23CB7270020938747BD130700F0D0
:10518C002391E70023820700B727002032451387BD
:10519C0007D3FD562301D700F2402388A7D29545AB
:1051AC0005616F708066597193970501CAD086D6D8
:1051BC00A2D4A6D2CECED2CCD6CADAC8DEC6E2C42F
:1051CC00E6C2EAC06EDEC1872E8963D40756B724C7
:1051DC00002003C504D3B7290020372B0020EFC0D3
:1051EC005FAB2A8426CCB72A0020372C002093846E
:1051FC0049BDB72C00201DE021653345A900B650F0
:10520C00265496540659F649664AD64A464BB64B2E
:10521C00264C964C064DF25D6561828083470400F6
:10522C001307200A639CE70003CA340003552400CB
:10523C00C1652286FD15EFF00F918DA26247130711
:10524C0007D3034A2700130710096395E716834712
:10525C0014001547639FE7002285EFF08F9322859A
:10526C00EFC01F9CE24703C507D3EFC09FA22A845F
:10527C0059B739476398E716035544008567A50766
:10528C006315F5040C4483CB0500639D0B00850569
:10529C0091C93725002019461305C5BE97B0FE1FCE
:1052AC00E78040F303C749BD85476315F710638852
:1052BC000B00238A09BC5E85EFF0CFC14DB789473F
:1052CC00238AF9BCEFD0403359BF89671387270075
:1052DC00631CE504832B8400638E0B0C83C70B00CB
:1052EC0089EF83C72B0003C71B00A207D98F239418
:1052FC00F40083C73B00A380F40003C749BD894772
:10530C00631AF70A83C70B0091C7238A09BC03C52C
:10531C000B005DB783C5140003D584008D47238A29
:10532C00F9BCEF708051E5B795076318F5001C4484
:10533C0003C50700EFF08FE31DB7F9771387A7FFBD
:10534C002A9742074183914663F1E6049387A7FCB1
:10535C00AA97C207C18371476371F70289671387E4
:10536C00B7006310E50483A70A9DE38A07EE9C430C
:10537C00A285E38607EE829715A03707001813075E
:10538C00F770B357F700858BA1CB83278B9DE388F0
:10539C0007EC9C43E38507EC22858297E31105EC2F
:1053AC0011A81387C7006310E5021C4483C70700CC
:1053BC00E38707EA9307F00FE303FAEAA285528525
:1053CC00EFC0DF9345B5B9076318F50083A74C9D73
:1053DC00E38707E8DC4369BF896793871704E30415
:1053EC00F5F8C9BF3D476399E70403554400896745
:1053FC001387D700E30CE5FC13879701E308E5FC62
:10540C00CD07E319F5FA03D76400C167FD17631DD7
:10541C00F70083A74C9DE38407E4DC43E38107E4B6
:10542C000965A2854D0581BFB727002083A7C79DBD
:10543C00E38707E29C43DDB71307E003E39CE7F641
:10544C008347240005476398E70E8347640037279A
:10545C000020930D879CE1E783A70D00D5CF83CB6C
:10546C000700214A03457400130D8400EA85EFE020
:10547C009FDF83474401A303A4008358040103580E
:10548C00E400035744002A86034534003EC2835788
:10549C002401EA86DE853EC0D287EFF04FBC8347FD
:1054AC00340095E7DD47835804010358E400834634
:1054BC007400835544003EC2835724016A873EC062
:1054CC00D28705465E85EF80B061A301A40083A757
:1054DC000D0081C71145EFF01FA0930B8C9E03C5E7
:1054EC000B00E30E05D6B727002083C5979EEFE08F
:1054FC00BF8EE30605D68346340093071003638AF8
:10550C00F6000356440083C50B0052873685EFE046
:10551C00DFA623040C9EA1B383CB340099B7832759
:10552C008B9D83CB3400114A95DFDC4385DF8145AD
:10553C000145829705BF29476398E70A83476400B2
:10554C0037270020930D879CA5EF83A70D00B5C7C7
:10555C0083CB0700214A034574009306840093779C
:10556C002500BDCB137615001303440183470402B9
:10557C008358C4010358A401035744000345340065
:10558C003EC28357E401DE851ACE3EC0D287EFF0CF
:10559C000FAD8347340072439DFBDD478358C40134
:1055AC000358A40183467400835544003EC28357BC
:1055BC00E4011A873EC0D28729B783CB340059BF88
:1055CC0083278B9D83CB3400114AD1D7DC43C1D7C1
:1055DC0081450145829741B7B68536CEEFE0BFC80D
:1055EC00F2462A86368359B70947639CE70083A79E
:1055FC000A9DE38607C6DC43E38307C622858297B0
:10560C00B9B92D476398E70083A70A9DE38907C4BE
:10561C009C47DDB70D476397E70022868D45035500
:10562C00440011B919476395E70693056102130508
:10563C001031EF5032792C1013052031EF50927845
:10564C0003566400835781020355440063E8C70086
:10565C00835684000357610263F7E600930500024A
:10566C00EFC0907DEDBE6374E6002313E40063F499
:10567C00D7002314F4000357C4008356A400035628
:10568C0084008355640001488147EFC0B07AC1BEE5
:10569C001D47E381E7D231476395E7002286B14588
:1056AC00BDBF35476398E70083A70A9DE38907BA16
:1056BC00DC4799B739476396E7002285EF00F0077E
:1056CC0079BE3D476398E70083A70A9DE38907B835
:1056DC009C4B1DB741476396E7002285EF001011E4
:1056EC00BDBE45476396E7000145EF00902085BE9F
:1056FC004947639DE70083278B9DE38D07CADC43F5
:10570C00E38A07CA8145054582976DB14D47639C75
:10571C00E70083278B9DE38F07C8DC43E38C07C826
:10572C00A2850945D5B76147E396E7C82286E145CE
:10573C00FDB593F7150089CFB727002083A7079DE8
:10574C0089C7DC4399C3014582971345190045BCB1
:10575C0093F7250091CFB727002083A7879D91C78A
:10576C00DC4381C78145054582971345290041BC1F
:10577C0093F745000145E38407A8B727002083A7CA
:10578C00C79C37240020130444BD91CF85472302C6
:10579C00F400B727002083A7879D91C7DC4381C7FE
:1057AC0081450545829748442C10EF90E0782810ED
:1057BC00EFF0AF96B727002083D767C181CF1306D0
:1057CC0000643386C702B727002003C507D3914571
:1057DC00EFC05FA5134549001DB4011122CC2A84EA
:1057EC00554506CE26CAEFF0EFBAAA84130540023F
:1057FC00EFF04FBA2AC613055002EFF0AFB9AA86E4
:10580C00228562443246F240B3359000D2440561A1
:10581C006FC0F068797122D406D68D472E84631F31
:10582C00F50003D7A50083D6850003D66500034594
:10583C00340083D54500EFE0DFF109A889671387B1
:10584C00D7006311E50403C5250019E58547B2505F
:10585C0022543E8545618280B727002083A6879C11
:10586C00F5D603C6360083C50600814802C202C0C5
:10587C000148814701479106EFE07FFE0545EFF0B7
:10588C008FE5E9B71387E700E302E5FC13873701DF
:10589C00631AE50003C5250055D901478146014629
:1058AC00814551BFE507E303F5FAB1476319F500EC
:1058BC00B727002003C577BDEFE0FFF441BF416778
:1058CC007D178147E315E5F803C75500C947E31F6A
:1058DC00F7F683D6E50003D6C5000355840083D5BF
:1058EC00A500EFC0506241C95D45EFF0AFAA33355A
:1058FC00A000231CA100834544000355240030085C
:10590C00EF80C05583578101B1F36C08130510313A
:10591C00EF50524B9305E10113052031EF50924AA1
:10592C008357C101035784006374F7002314F400F8
:10593C008357E1010357A40063F4E7002315F40037
:10594C00835784000357A4006374F7002315F400F5
:10595C0003552400EF40317E0357E4008356C40006
:10596C000356A40083558400035524000148814745
:10597C00EFC0104AE1BD8547231CF100ADBFB7272E
:10598C000020138707D3834677001307F00F638C2F
:10599C00E60851C9411122C426C24AC006C6AA84CF
:1059AC000345A500138907D34105EFC02FAA2A840C
:1059BC002DC59307000D2310F500D9472301F500E1
:1059CC0083D744002312F50083C764002303F5003A
:1059DC0083C77400A303F50083C784002304F50078
:1059EC0083C79400A304F50003C6A4002305C500D7
:1059FC0015C2CC44410548C497A0FE1FE780807DAA
:105A0C00A285224403457900B240924402494101E7
:105A1C006FC0CFAE23260500E5B7B24022449244B6
:105A2C000249410182808280C1671387E7FF639E30
:105A3C00E500B727002083A7879C9DC383C7070079
:105A4C000D47639DA7006FC0F03BFD174947639757
:105A5C00F500B727002083A7879CF5F73A8582804D
:105A6C004947EDBF397122DC06DE26DA4AD84ED61C
:105A7C0052D456D25AD05ECE62CC0347050085472D
:105A8C002A84630DF704034685009306950093055D
:105A9C00E1000545EFE0EFE0814719C183470500C0
:105AAC008346040011476383E6043727002003274D
:105ABC00C79E8D4603471700630AD70285CB1DC7C7
:105ACC000DE10145F2506254D2544259B259225A56
